:040000008031122811
:100008007E14803120007F082100EB0081316B21B4
:1000180021006B082000FF007E10090080311428A1
:100028002100E001E101E201E301E401E501220030
:10003800ED01EE01EF01A03084000130850047306A
:1000480097316B27803120308400023085001230D0
:1000580097316B278031A030840002308500403012
:1000680097316B2780312030840003308500403081
:1000780097316B277E1020008531492D20005203CF
:10008800031D5A2850081F39003A031D5A28230017
:10009800B517033020005106031D58280130E6002B
:1000A80066082300CF005A282300CF0120005208F9
:1000B800031D080050081F39023A031D08005408A0
:1000C8000F39003A0319080054080F39E6000330C5
:1000D800660203180800203022006D06031D080080
:1000E8002300B5172000D41B882854080F390907A6
:1000F800AD3E860001308700403FEB00413FEC00F9
:1001080054080F39C33E962854080F390907A73EEB
:10011800860001308700403FEB00413FEC00540867
:100128000F39C03E8600013087000108E6006608E6
:10013800EA006A18A928FB30E600FF30E7006B08E0
:100148006605EB006C086705AE2804306B04EB000D
:1001580000306C04EC00D41BBD2854080F39090783
:10016800AD3E8600013087006B08C03F6C08C13F78
:10017800C82854080F390907A73E860001308700B0
:100188006B08C03F6C08C13F03305106031DEA28C5
:100198006B0886006C088700811FDF28D41BD828CD
:1001A80054080F39C33EDB2854080F39C03E860077
:1001B8000130870081146B0886006C0887000115E0
:1001C8006B0886006C0887008117080004306B06EE
:1001D800EB0000306C06EC006B0886006C088700AA
:1001E800811F13297F30E6006B0886006C088700A2
:1001F800660881056B0886006C08870001170030C7
:10020800E1000530E0006C08E3006B08E200023012
:10021800E4000030E5008931CE2180311929200021
:100228006B0886006C0887000117043020006B06F5
:10023800EB0000306C06EC00EA1828296B088600F1
:100248006C088700811F4D29D41B2E2954080F39AB
:10025800C33E312954080F39C03E8600013087005B
:1002680081103B30E6006B0886006C088700660842
:1002780081050030E1000530E0006C08E3006B0800
:10028800E2000230E4000030E5008931CE218031FF
:1002980056293B302000E6006B0886006C08870072
:1002A80066088105200054080F39983EE600E701EA
:1002B8000E30E73D6608E8006708E900FE30E60012
:1002C800680886006908870066088105080022001A
:1002D8006D03031D7B293D008E1A7B2990011214A2
:1002E800121602302100E90069082200ED003D00E5
:1002F8001019121D8829FB302100E90069083D000A
:1003080090058831A02081313D008E1C8E29200067
:10031800121108001018121CA12984319B24813164
:10032800210012150430E90069082200ED00FE30B2
:100338002100E90069083D009005101A121EA7293E
:100348008831612081313D00101FD129121FBC293D
:1003580073302000E0000030E1000030E20000309F
:10036800E3000130E4000030E5008931CE2181311D
:10037800BF302100E90069083D0090059731E82762
:100388008131230056080319CB290130D6025608BB
:10039800031DD1298D317B2581313D00901A921E94
:1003A800D8298831E32081313D009018921CEE292C
:1003B800FF302000E0007F30E1000030E200003034
:1003C800E3000130E4000030E5008931CE218131BD
:1003D8003D009301043022006D020318F629200025
:1003E800121108003D00921D4F2A2000EF01043031
:1003F8006F0203184F2A3D00901D4F2A0F08210055
:10040800E9006908E500650CE900E90C690C0F3999
:10041800EA006A082300DC00F7302100E9006908D7
:100428003D009005210065191D2A23005C08C33E84
:10043800202A23005C08C03E86000130870001089E
:1004480001392100E9000130E90601086906FE3991
:100458006906810023005C08031D362A8A31DB22E5
:100468008131452A72302000E0000030E100E5309B
:10047800E2000030E3000030E400E5008931CE21DD
:10048800813101302100E90069082000EF070430BC
:100498006F02031CFF29200012110800173483344F
:1004A8009D348234D13482345A348234093402344B
:1004B80043340034023401340034C0343234093453
:1004C800043400340034013402340234013400347A
:1004D8000534243400341034013404342434023410
:1004E8000234053424340634003401340534243409
:1004F80001340034013407340534813403340834BA
:1005080000340234093404340134003402340A3427
:1005180000340034003407340534023402344034E3
:100528000034003407340534823402344034003453
:100538000034343403344D340034693400346334C3
:100548000034723400346F34003463340034683457
:1005580000346934003470340034203400345434A6
:1005680000346534003463340034683400346E3445
:1005780000346F3400346C3400346F340034673422
:1005880000347934003420340034493400346E3473
:100598000034633400342E340034343403344334A8
:1005A80000344434003443340034203400345234AA
:1005B8000034533400342D340034323400343334AE
:1005C80000343234003420340034453400346D347F
:1005D8000034753400346C340034613400347434BD
:1005E8000034693400346F3400346E3400342034FD
:1005F800003444340034653400346D3400346F34CE
:10060800003412340134003402340234003400342B
:100618000834D83404340A34003400340134013442
:10062800023400340134043403340934043421001E
:10063800121123004608470403192B2B460886008D
:1006480047088700811F2B2B210012150800033053
:10065800210062060319E2016208031D352B1215F9
:10066800080002306206031D542B2200E001E00A54
:100678000030E1000030E200E30102308E31EF2665
:100688008331220061082300C7002200600823008C
:10069800C60003302200EB006B082100E200E02BCB
:1006A8006203031DE02B413023005A02031C5E2B1A
:1006B80040305F2B5A082200EB006B082300E8004B
:1006C8006803FF3A5A072200EB006B082300DA00A0
:1006D800A0302200EB006B082300CA006808220043
:1006E800EB006B082300E70058080319972BB62B7B
:1006F8004C0886000230870001082200EB00230026
:100708004A088600870122006B0881000130EB004F
:100718006B082300CA0701302200EB006B08230096
:10072800CC070130E70267080319B92B7C2B4C086A
:1007380086000230870001082200EB0023004A08E7
:100748008600870122006B0881000130EB006B08EE
:100758002300CA0701302200EB006B082300CC07F6
:100768000130E7026708031D9B2B5A08031DC82B9D
:1007780040306806031DC22B0230C32B0330220011
:10078800EB006B082100E2002200E001E00AA03043
:10079800E1000030E200230068082200EB006B084B
:1007A800E30002308E31EF26220061082300C700E3
:1007B800220060082300C60021001215080021004D
:1007C80012113D009301900198010E302200E200C1
:1007D8009930E100E301023063020318042C610838
:1007E80086006208870081010130E1070030E23DA0
:1007F8000130E0006008E30702306302031CF32BBA
:1008080016303D0091009F3097007B309200220007
:10081800E4010C30640203182A2C6408E00001305B
:10082800E035FF3E031D142C6035203E860087010D
:100838000030C03F0030C13FC23FC33F0130E0003D
:100848006008E4070C306402031C112C3D000E17ED
:1008580096010E120E13F7302200E00060083D00EA
:1008680090052300B501A201A301A4013D00901940
:100878002F2C01302200E00060082300D400013052
:100888002200E00060082300D500D101D201D00188
:100898002200E401033064020318762C6435A73E75
:1008A8008600013087000030C03FC13F6435AD3E4F
:1008B8008600013087000030C03FC13F6408C03E59
:1008C80086000130870081016408C33E860001303C
:1008D800870081010130E0006008E407033064020A
:1008E800031C522C28302300A7000030A800163023
:1008F8003D00980000302000A3005030A2000830CE
:10090800A10004302200E00060082000A000A01729
:100918002200EF0100302300BF000030BE0000308D
:10092800BD000030BC00D7012200ED010800210005
:1009380012113D009301900198010E30F200993098
:10094800F100F301023073020318BB2C7108860012
:100958007208870081010130F1070030F23D013053
:10096800F0007008F30702307302031CAA2C16303B
:100978003D0091009F3097007B309200F4010C30CD
:1009880074020318E02C7408F0000130F035FF3EC3
:10099800031DCA2C7035203E860087010030C03FF9
:1009A8000030C13FC23FC33F0130F0007008F40778
:1009B8000C307402031CC72C3D000E1796010E1252
:1009C8000E13F730F000700890052300B501A2015E
:1009D800A301A4013D009019E52C0130F000700836
:1009E8002300D4000130F0007008D500D101D201F5
:1009F800D001F401033074020318262D7435A73E84
:100A08008600013087000030C03FC13F7435AD3EDD
:100A18008600013087000030C03FC13F7408C03EE7
:100A280086000130870081017408C33E86000130CA
:100A3800870081010130F0007008F4070330740268
:100A4800031C022D28302300A7000030A800163010
:100A58003D00980000302000A3005030A20008306C
:100A6800A1000430F0007008A000A0172200EF01D8
:100A780000302300BF000030BE000030BD00003051
:100A8800BC00D7012200ED01080040302300EC0033
:100A98006C082400B30021000E128E1222000E16DC
:100AA80000309731B927853123008C018D018E01E3
:100AB8008331E32385318831452085318A31062207
:100AC800853100302300E1000030E0000430DF0011
:100AD800B030DE009731A42785318F3173278531F7
:100AE800003097318F2785312300EC006C082400F3
:100AF800B700B401073097318F2785312300EC0008
:100B08006C082400B700003097318F278531230007
:100B1800EC006C082400B200B401B501371FD72DD2
:100B2800370840382300EC006C082200E100073049
:100B380088311C2085312400B71EAD2D3708203898
:100B48002300EC006C082200E100073088311C20EB
:100B5800853134302300EC006C082200E1000430B9
:100B680089313521853122008E1607302300EE00A9
:100B78001730ED006F30EC00EC0BC02DED0BC02DE5
:100B8800EE0BC02D000022008E1204302300EE0070
:100B98000C30ED003530EC00EC0BD02DED0BD02DEA
:100BA800EE0BD02D003221006208031DEB2D24002E
:100BB8003408031935080319EB2D04302300EC0021
:100BC8006C082200E000343088312B2085318331D5
:100BD8001B2385317E2D2100640886008701413F53
:100BE800F5007508F200F301730823002402031DC1
:100BF800FF2D720823020318052E2308F20072083D
:100C0800F5007508F200F3017208A3027308A43B0B
:100C1800F401750874020318262E7408583E8600DD
:100C280087010108F2002008860001308700720859
:100C380081000130F2007208A0070130F20072084A
:100C4800F4070D2E230824040319612E21006008DF
:100C5800013EF2000030613DF3007208860073081F
:100C68008700083081005830F2000030F300600837
:100C780086006108870042317208C03F7308C13F8F
:100C8800640886008701011B552E600886006108EC
:100C98008700483081006008860061088700811756
:100CA8000800600886006108870008308100600835
:100CB8008600610887008117080021006008013E4E
:100CC800F2000030613DF300720886007308870067
:100CD800083081005030F2000030F30060088600D0
:100CE8006108870042317208C03F7308C13F60083D
:100CF800860061088700043081006008860061086A
:100D080087008117230025082608A2135308031D0E
:100D180008008D317B2508003D000E122300B51B0D
:100D2800D82EA21FA62E0230F50075082100E30078
:100D380023005208031DA22E8B3184232300D501E2
:100D4800D401080021006008013EF5000030613D33
:100D5800F600750886007608870008308100503054
:100D6800F5000030F600600886006108870042310F
:100D78007508C03F7608C13F600886006108870093
:100D88000C30810060088600610887008117230005
:100D98002708860028088700043081002708860075
:100DA80028088700811708002000D01FF02E013086
:100DB800F50075082100E30023005108031DE72E04
:100DC8008B31842386312300D501D4015308031DB8
:100DD80008008D317B2508000230F50075082100D8
:100DE800E3006008013EF5000030613DF60075083B
:100DF800860076088700083081005030F500003002
:100E0800F600600886006108870042317508C03F17
:100E18007608C13F600886006108870004308100B9
:100E2800600886006108870081172300D501D40176
:100E38005308031D08008D317B2508002300B517D2
:100E48000E302000E8009930E700E901023069021D
:100E580003183F2F67088600680887008101013062
:100E6800E7070030E83D0130E6006608E907023090
:100E78006902031C2E2F2030F0000030F1000030F2
:100E8800F200F3003030F4000030F5009731D0273D
:100E980087313D000E172000EA0103306A0203186B
:100EA800692F6A08C03E86000130870081016A0800
:100EB800C33E86000130870081010130E6006608E4
:100EC800EA0703306A02031C552FE530F0000130B1
:100ED800F1000030F200F3000230F4000030F500B9
:100EE8009731D02787313D000E1328302300A70003
:100EF8000030A80020302000E60066082100E40049
:100F08006408E000FF39031D0030E10020005208AA
:100F1800E60066082200EF006F08031D9A2F1030C4
:100F28002000E60066082200ED00080000302000DE
:100F3800E1000130E0006F30E2000130E3000130F1
:100F4800E4000030E5008931CE2120302000E600A1
:100F580066082200ED0008002200E5002030E100CC
:100F68006108E6006008E1000130E135890BB92F1E
:100F78006508E2000130E235FF3E031DBF2F6235F0
:100F88006107E3000130E335FF3E031DC72F6335DA
:100F9800E4006408E6076608860087018113600894
:100FA800031DE02F6535AD3E8600013087006608D9
:100FB800C03F0030C13FE92F6535A73E86000130AC
:100FC80087006608C03F0030C13F66088600870179
:100FD80001136608043E86008701011708002200F5
:100FE800E1000E1361089731712722000E170800DF
:101000008C31642C8C31672C8C31A02C8C31672C6A
:101010008C31A02C8C31472C8C31502C8C31872C6E
:101020008C31562C8C31532C8C316A2C8C317A2C8F
:041030008C31A02C33
:101038002200E2000E1362082038973171278831A8
:10104800220061089731712722000E17080022003C
:10105800E200210012116208031D432822006208E1
:10106800E10061082300CC0022006008E10061086B
:101078002300DA00D801D80A2100E201E20A121599
:10108800080022006D08031D08003D008E01920132
:10109800163091009F3097007B3092002100121586
:1010A8000B178B173D008E195B288E1556280130BB
:1010B8002200E0006008ED0008003D001215EF3046
:1010C8002000E60066083D0090058E1401302000DF
:1010D800E60066082300D000D70175302000E00044
:1010E8000030E1000030E2000030E3000030E400AE
:1010F800E5008931CE210800FC00771D8828F00121
:101108007C088A3145228831F71C8F28F001F00AC3
:101118007C088A3145227C08983EF800F9010E3097
:10112800F93D7808FA007908FB007A0886007B0800
:1011380087007708810008002300D0017430200060
:10114800E0000030E1000030E2000030E300003051
:10115800E400E5008931CE2188313D008E1012115E
:10116800101DBD28FB302000E60066083D009005F4
:10117800B4282300D70108002200EC00671DC92805
:10118800E0016C088731B02788312200E71CD1289C
:10119800E001E00A6C088731B02722006C08983E0D
:1011A800E800E9010E30E93D6808EA006908EB004B
:1011B8006A0886006B0887006708810008003D0000
:1011C800181C052921006408860087018030010663
:1011D800031D032923002708860028088700843078
:1011E8000106031D03290C30F00021006408860065
:1011F80087017008810064088600870181173D0017
:101208001810DF30F0007008900508002200E40094
:101218000E13640820389731712789312200E501BF
:10122800E6016608803AE30080306302031D1E2948
:101238006108650203183229220065086207E30085
:1012480063088600013087000108973171278931CA
:1012580001302200E5070030E63D152922000E176F
:1012680008002200E4000E1361309731712789319C
:101278002200E5016408650203185629FF309731FA
:10128800712789312200E20065086107E3006308DD
:10129800860002308700620881000130E20062089F
:1012A800E5073E290E170C169C30E300D730E20004
:1012B800E20B5C29E30B5C29080000302300E10005
:1012C8000030E0004B30DF000030DE00E201E301D7
:1012D8000830FD007D08E400D9011A30FD007D08C2
:1012E800F70001308831802089311E30FD007D08EB
:1012F800F7000230883180208931F0012030F10078
:101308000130F2004030FD007D08F30002308E31DC
:101318006C2671082300C9007008C800C601C701FF
:101328002100E2010800023021006306031D9F2905
:101338008531EF2508002100E30123004E08031D35
:10134800CB2921006008013EF6000030613DF7001E
:101358007608860077088700083081005030F6004C
:101368000030F7006008860061088700423176087F
:10137800C03F7708C13F60088600610887000C30CD
:101388008100600886006108870081170800230033
:10139800CE010800DD29013097317A270800023094
:1013A80097317A2708008931612108008B31E023C1
:1013B800080020006108003A0319E6297F3A03195A
:1013C800002A052A6008013A0319D729033A0319A4
:1013D800052A013A0319DA29063A0319052A773A40
:1013E8000319052A013A0319052A073A0319D329CB
:1013F800013A0319CF29052A6008FF3A0319052A7B
:10140800052A080000302300E1000030E0004B30DE
:10141800DF000030DE00E201E3010830E700670882
:10142800E400D9011A30E70067082200E70001301C
:101438008831C0208A311E302300E7006708220067
:10144800E70002308831C0208A312200E0012030D4
:10145800E1000130E20040302300E7006708220085
:10146800E30002308E31EF26220061082300C90014
:10147800220060082300C800C601C7012100E2015C
:101488000800F5002030F1007108F6007008F1003E
:101498000130F135890B4D2A7508F2000130F2351B
:1014A800FF3E031D532A72357107F3000130F335EF
:1014B800FF3E031D5B2A7335F4007408F6077608AF
:1014C8008600870181137008031D742A7535AD3EA7
:1014D8008600013087007608C03F0030C13F7D2A72
:1014E8007535A73E8600013087007608C03F00307A
:1014F800C13F76088600870101137608043E8600FE
:101508008701011708002200EE012300D301D10151
:10151800D201CE012100E3017F302000EE0023003C
:10152800270886002808870020006E0881050430F7
:1015380023002706A70000302806A8007F302000D7
:10154800EE002300270886002808870020006E0880
:101558008105043023002706A70000302806A800CC
:101568007F302000EE0021006008860061088700B7
:1015780020006E0881052300B501B601B701A2015C
:10158800A301A4018C313F248A3100302000E100FE
:101598000330E0000030E2000030E3000030E400F7
:1015A800E5008931CE218A318631902608002D3018
:1015B8002100E60066082300D60021006508FD39F1
:1015C800031D242B65363F39E6000130E635FF3E22
:1015D800031DEA2A6635203EE7006708E400640830
:1015E800E000FF39031D0030E10004306006E00030
:1015F80000306106E100640886008701010C890C4F
:101608000F390D3A031D212B503086008701210028
:101618006408023E84008501003FE600013FE700C0
:1016280066088400670885000830E80012001E007C
:10163800E80B1A2B8A318722080089319721080084
:10164800FD3021006505E60004306606031D08002C
:101658008D310B2508002000D801D9016B2B230000
:10166800B51723004F03031D772B2000D814772BC1
:101678002300B517772B2300B5172000D41B4F2B59
:1016880054080F390907AD3E860001308700403FF6
:10169800F100413F592B54080F390907A73E86002E
:1016A80001308700403FF100413FF2007108860099
:1016B80072088700811F772B7108860072088700DF
:1016C800011D772B0130F0007008D800772B5008E7
:1016D8001F39003A0319332B013A03193C2B033AFB
:1016E80003193F2B772B2300B51F08005830B30090
:1016F8000030B40035140230F0007008B60008005D
:101708002300D101D201023021006306031DB12B51
:101718006008013EF3000030613DF4007308860064
:1017280074088700083081005830F3000030F40056
:10173800600886006108870042317308C03F74085A
:10174800C13F600886006108870048308100600852
:1017580086006108870081170800230037082000E9
:101768005702031DBB2B230036082000560203181E
:10177800C42B57082300B700200056082300B600E2
:101788008C31A1245830F3000030F40023002708DE
:1017980086002808870042317308C03F7408C13F9B
:1017A8002708860028088700483081002708860017
:1017B8002808870081170800200050081F39013ABF
:1017C800031D0800500E890C0339013A031D080057
:1017D800540803192C2C5403031D08002C2C2A3000
:1017E8002300B3000230B4000030B7000830B60060
:1017F8003514B51708002A302300B3000230B400AE
:10180800B5170800200057082300A4002000560838
:101818002300A300DE30F0007008A000A501A60197
:10182800A2170800DE302300B3000130B4000030F6
:10183800B7000730B600C130F0007008B5000800E6
:1018480020005208F00070082300DB00B5170800DC
:1018580020005108003A0319F32B013A0319FF2B12
:10186800213A0319062C013A0319162C033A0319D5
:10187800242C3E2C08002000500E890C0339003A15
:10188800031D0800952C2300B51708302000ED0033
:101898006D082200ED0008008D31ED250800873124
:1018A800222708006F302300B3000130B40035143C
:1018B80001302000ED006D082300B600B5170800C0
:1018C8008B312F2308008031422008002000540863
:1018D800E53E2300B3000130B40035140130200088
:1018E800ED006D082300B600B51708002300B517F2
:1018F80020005208ED005408E53E860001308700BC
:101908006D08810008000030E1000230E00000307E
:10191800E2000030E3000030E400E5008931CE2128
:1019280008002000510884000D3004020318080044
:1019380088310435003E820008000830F000700845
:10194800F20000302300370208300319360203186A
:10195800BE2C3608F0007008F20022006E08031D45
:10196800B72C0130BB2C6E03031DBE2C0230F000D7
:101978007008EE007208F000F10170082300B6024A
:101988007108B73B2708013EF0000030283DF10000
:101998007008860071088700720881005830F000CE
:1019A8007008DD00351CEE2C072D33088400340840
:1019B80085000008F0005D08860087017008810036
:1019C8000130B3070030B43D0130F0007008DD0786
:1019D8000130F202720803190800D92C3308840078
:1019E800340885000008F0005D088600870170084B
:1019F80081000130B3070030B43D0130F0007008B9
:101A0800DD070130F202720803190800F22C2300E6
:101A180027088600280887000030011B0130F500E0
:101A280004302706A70000302806A8000830220046
:101A38006D06031D2E2D200052087F393D009600AB
:101A480016080319292D10302A2D0430F3007308C5
:101A58002200ED0021006303031D722D5830F300AE
:101A68000030F40023002708860028088700423148
:101A78007308C03F7408C13F8C31A1248D310230F6
:101A880022006E06031D552D23002708860028080E
:101A980087000430810027088600280887008117FE
:101AA80008007508031D652D2300270886002808EF
:101AB800870048308100270886002808870081179A
:101AC80008002300270886002808870008308100BE
:101AD8002708860028088700811708002300A21F0E
:101AE800782D25082608A2132100E3010800230009
:101AF8005408031D08000130F0007008D400550890
:101B0800031D08000130F0007008D50002302100E4
:101B18006306031DA22D23002708860028088700D6
:101B28004131810127088600280887004830810054
:101B3800270886002808870081170800210063030A
:101B4800031D08002300CE010830F0002100640ABC
:101B580086008701700881005030F0000030F100E5
:101B68006408023E860087017008C03F7108C13FC3
:101B78000430F0006408860087017008810064085A
:101B88008600870181170130F00070082300CE001D
:101B980021006008013EF0000030613DF10070084E
:101BA800860071088700083081005030F00000304E
:101BB800F100600886006108870042317008C03F64
:101BC8007108C13F60088600610887008030810085
:101BD8000800803020005006031D0800C030F000C7
:101BE80070082300B5005F2E05302300B300833052
:101BF800B4000030B7001230B600080020005208C8
:101C0800031D352E5208F000F101F035F10D583062
:101C1800700784008230713D8500003F2300B300C7
:101C2800013FB4003408F1003308F00002307007B7
:101C3800840071080318710A85000008F200720810
:101C4800B6003408F1003308F00003307007840050
:101C580071080318710A85000008F2007208B700BD
:101C680008002300B50108000330200052020318C1
:101C7800592E5208F000F101F035F10D523070077D
:101C880084008230713D8500003F2300B300013F8E
:101C9800B40033088400340885000008F000F1011E
:101CA8007008B6007108B70008002300B5010800E5
:101CB8002300B501080020005308013A0319F82D44
:101CC800033A0319022E013A0319382E5C2E080034
:101CD800F80070080319792E7835A73E8600013080
:101CE8008700403FF900413F812E7835AD3E8600A0
:101CF80001308700403FF900413FFA0079087A0433
:101D0800031D892EF001F1010800FF307105F40070
:101D18007F307205F500790886007A08870042311D
:101D28007408C03F7508C13F7908013EF4000030CF
:101D38007A3DF500740886007508870073088100ED
:101D48004030F400790886007A0887007408810515
:101D5800790886007A0887008115790886007A084C
:101D68008700811770080319D22E7835A73E8600A0
:101D780001308700403FF400413FF500043074060D
:101D8800F60000307506F7007835A73E860001306A
:101D980087007608C03F7708C13FEA2E7835AD3E08
:101DA800860001308700403FF400413FF5000430D1
:101DB8007406F60000307506F7007835AD3E8600EB
:101DC800013087007608C03F7708C13F7A08F100E4
:101DD8007908F00008002200E80060080319FD2EC9
:101DE8006835A73E860001308700403FE900413F43
:101DF800052F6835AD3E860001308700403FE90079
:101E0800413FEA0069086A04031D0D2FE001E10162
:101E18000800FF306105E4007F306205E5006908CD
:101E280086006A08870042316408C03F6508C13FE0
:101E38006908013EE40000306A3DE5006408860058
:101E480065088700630881004030E400690886005F
:101E58006A08870064088105690886006A0887009F
:101E68008115690886006A088700811760080319C8
:101E7800562F6835A73E860001308700403FE400B2
:101E8800413FE50004306406E60000306506E700DF
:101E98006835A73E8600013087006608C03F67089E
:101EA800C13F6E2F6835AD3E860001308700403F48
:101EB800E400413FE50004306406E60000306506B2
:101EC800E7006835AD3E8600013087006608C03FF0
:101ED8006708C13F6A08E1006908E0000800AB3004
:101EE8002200E70067082300EB00AC302200E7007F
:101EF80067082300EA00AD302200E70067082300E6
:101F0800E900AE302200E70067082300E800AF30A0
:101F18002200E70067082300E70022000C16E10111
:101F2800E10A013088311C208F312200E101E10AE9
:101F3800023088311C208F3103302200E700670807
:101F4800E100033088311C208F312F302200E70058
:101F58006708E100043088311C208F3114302200DA
:101F6800E7006708E100053088311C208F31063012
:101F78002200E7006708E100063088311C208F3115
:101F880004302200E7006708E100113088311C2086
:101F98008F317B302200E7006708E100003088318C
:101FA8001C208F3170302200E7006708E1000730FD
:101FB80088311C208F3105302200E7006708E100D6
:101FC800E730E8006808E2000A3089310A218F31D9
:101FD800E2308731F3278F31E1308731F3278F31B2
:101FE80022000C160430E8009430E700E70BFA2FC3
:081FF800E80BFA2F00000800BD
:102ED600640080010131890B6C2F00342200E00070
:102EE600600824009100141C762F11080800F000D9
:102EF600832FFC3021009900903027009B000800AA
:102F06007008003A03197C2F013A03198E2F033AF1
:102F160003198E2F8E2F08002200E2000E1362087E
:102F2600E1006108E3006308973171279731FF30AC
:102F3600973171272200E1006108E4000E1764084A
:102F460008002400951221000D130D168E130E1382
:102F56000C1222000E170C122400141715129413CB
:102F66001508F03902389500951608002200E00091
:102F7600C32FFC3021009900903027009B000800E9
:102F860022006008003A0319BC2F013A0319CF2F1B
:102F9600033A0319CF2FCF2F08007108F7007008E6
:102FA600F6000130F4020030F53B740A0319750A85
:102FB60003190800760886007708870072088100E2
:102FC6000130F6070030F73DD42F01302300BC074F
:102FD6000030BD3D0030BE3D0030BF3D5008031DF2
:102FE60008000130F0007008D7075708031D0800D5
:0A2FF600FF30F0007008D70008005B
:020000040001F9
:04000E00E4C9CFDC96
:00000001FF
