:040000008031122811
:100008007E14803120007F082100EB0081316721B8
:1000180021006B082000FF007E10090080311428A1
:100028002100E001E101E201E301E401E501A03082
:100038008400013085004D3097318227803120308F
:100048008400023085001230973182278031A03039
:10005800840002308500403097318227803120307B
:100068008400033085004030973182277E102000BD
:100078008F317B2F20005203031D562850081F394B
:10008800003A031D56282300B517033020005106F7
:10009800031D54280130E60066082300D0005628C6
:1000A8002300D00120005208031D080050081F3902
:1000B800023A031D080054080F39003A03190800D2
:1000C80054080F39E6000330660203180800203090
:1000D80021006206031D08002300B5172000D41B69
:1000E800842854080F390907AD3E8600013087007F
:1000F800403FEB00413FEC0054080F39C33E9228C3
:1001080054080F390907A73E860001308700403F91
:10011800EB00413FEC0054080F39C03E8600013027
:1001280087000108E6006608EA006A18A528FB307F
:10013800E600FF30E7006B086605EB006C08670512
:10014800AA2804306B04EB0000306C04EC00D41BCC
:10015800B92854080F390907AD3E860001308700D9
:100168006B08C03F6C08C13FC42854080F39090701
:10017800A73E8600013087006B08C03F6C08C13F6E
:1001880003305106031DE6286B0886006C088700BB
:10019800811FDB28D41BD42854080F39C33ED72825
:1001A80054080F39C03E86000130870081146B085F
:1001B80086006C08870001156B0886006C088700AC
:1001C8008117080004306B06EB0000306C06EC0069
:1001D8006B0886006C088700811F0F297F30E600B6
:1001E8006B0886006C088700660881056B08860026
:1001F8006C08870001170030E1000530E0006C084A
:10020800E3006B08E2000230E4000030E5008931C9
:10021800CA218031152920006B0886006C088700E8
:100228000117043020006B06EB0000306C06EC0070
:10023800EA1824296B0886006C088700811F492961
:10024800D41B2A2954080F39C33E2D2954080F39C5
:10025800C03E86000130870081103B30E6006B0805
:1002680086006C088700660881050030E1000530CB
:10027800E0006C08E3006B08E2000230E4000030A4
:10028800E5008931CA21803152293B302000E6003F
:100298006B0886006C0887006608810520005408F2
:1002A8000F39983EE600E7010E30E73D6608E800A2
:1002B8006708E900FE30E6006808860069088700DC
:1002C80066088105080021006203031D76293D00A8
:1002D8008E1A762990011214121602302100E900B4
:1002E8006908E2003D001019121D8329FB30210026
:1002F800E90069083D00900588317A2081313D0088
:100308008E1C89292000121108001018121C9A2925
:1003180084319B248131210012150430E9006908D9
:10032800E200FE30E90069083D009005101A121E2F
:10033800A02988313B2081313D00101FCA29121F96
:10034800B52973302000E0000030E1000030E20001
:100358000030E3000130E4000030E5008931CA21B3
:100368008131BF302100E90069083D0090059731CF
:10037800E8278131230059080319C4290130D9021B
:100388005908031DCA298D31832581313D00901AF2
:10039800921ED1298831E02081313D009018921CAD
:1003A800E729FF302000E0007F30E1000030E20064
:1003B8000030E3000130E4000030E5008931CA2153
:1003C80081313D0093010430210062020318EF29B6
:1003D8002000121108003D00921D482A2000EF015C
:1003E80004306F020318482A3D00901D482A0F0860
:1003F8002100E9006908E500650CE900E90C690CD1
:100408000F39EA006A082300E000F7302100E9000C
:1004180069083D00900521006519162A2300600827
:10042800C33E192A23006008C03E860001308700B9
:10043800010801392100E9000130E90601086906CF
:10044800FE396906810023006008031D2F2A8B31BD
:10045800552381313E2A72302000E0000030E1004F
:10046800E530E2000030E3000030E400E5008931C7
:10047800CA21813101302100E90069082000EF0715
:1004880004306F02031CF829200012110800210013
:10049800121123004608470403195B2A4608860000
:1004A80047088700811F5B2A2100121508000330C6
:1004B80023005D060319DD015D08031D662A21007E
:1004C80012150800023023005D06031D862A22004B
:1004D800E001E00A0030E1000030E200E301023010
:1004E8008E31F7268231220061082300C7002200DE
:1004F80060082300C60003302200EB006B082300CD
:10050800DD00182B5D03031D182B41305E02031C10
:100518008F2A4030912A23005E082200EB006B08E6
:10052800ED006D03FF3A23005E072200EB006B0825
:100538002300DE00A0302200EB006B082300CA0075
:1005480022006D08EB006B08EC0023005B08031920
:10055800CB2AED2A23004C088600023087000108C8
:100568002200EB0023004A088600870122006B085E
:1005780081000130EB006B082300CA07013022001C
:10058800EB006B082300CC0701302200EC022200AC
:100598006C080319F12AAE2A23004C0886000230A1
:1005A800870001082200EB0023004A088600870123
:1005B80022006B0881000130EB006B082300CA079A
:1005C80001302200EB006B082300CC070130220029
:1005D800EC0222006C08031DD02A23005E08031DCC
:1005E800022B403022006D06031DFC2A0230FE2A31
:1005F80003302200EB006B082300DD002200E0013D
:10060800E00AA030E1000030E2006D08EB006B0862
:10061800E30002308E31F726220061082300C7006C
:10062800220060082300C600210012150800E034EB
:100638008334663483349A348334233483340934DA
:10064800023443340034023401340034C0343234C8
:1006580009340434003400340134023402340134DF
:100668000034053424340034103401340434243480
:100678000234023405342434063400340134053499
:10068800243401340034013407340534813403340C
:100698000834003402340934043401340034023498
:1006A8000A34003400340034073405340234023488
:1006B8004034003400340734053482340234403482
:1006C80000340034343403344D3400346934003495
:1006D80063340034723400346F34003463340034CB
:1006E8006834003469340034703400342034003401
:1006F80054340034653400346334003468340034CE
:100708006E3400346F3400346C3400346F34003489
:1007180067340034793400342034003449340034E8
:100728006E340034633400342E34003434340334EB
:100738004334003444340034433400342034003427
:1007480052340034533400342D34003432340034FD
:100758003334003432340034203400344534003427
:100768006D340034753400346C3400346134003432
:1007780074340034693400346F3400346E34003417
:100788002034003444340034653400346D3400348B
:100798006F3400341234013400340234023400342B
:1007A80000340834D83404340A34003400340134B2
:1007B8000134023400340134043403340934043479
:1007C800210012113D009301900198010E30220082
:1007D800E2009930E100E301023063020318052CBE
:1007E800610886006208870081010130E107003056
:1007F800E23D0130E0006008E30702306302031CB9
:10080800F42B16303D0091009F3097007B3092000A
:100818002200E4010C30640203182B2C6408E00069
:100828000130E035FF3E031D152C6035203E860063
:1008380087010030C03F0030C13FC23FC33F013095
:10084800E0006008E4070C306402031C122C3D0031
:100858000E1796010E120E13F7302200E000600802
:100868003D0090052300B501A201A301A4013D00AC
:100878009019302C01302200E00060082300D700D6
:1008880001302200E00060082300D800D401D5011F
:10089800D3012200E401033064020318772C643585
:1008A800A73E8600013087000030C03FC13F643555
:1008B800AD3E8600013087000030C03FC13F64086C
:1008C800C03E86000130870081016408C33E86006F
:1008D8000130870081010130E0006008E40703303F
:1008E8006402031C532C28302300A7000030A80002
:1008F80016303D00980000302000A3005030A200C0
:100908000830A10004302200E00060082000A000A8
:10091800A0172300EC010030BF000030BE000030FB
:10092800BD000030BC00DA012100E201080021000E
:1009380012113D009301900198010E30F200993098
:10094800F100F301023073020318BB2C7108860012
:100958007208870081010130F1070030F23D013053
:10096800F0007008F30702307302031CAA2C16303B
:100978003D0091009F3097007B309200F4010C30CD
:1009880074020318E02C7408F0000130F035FF3EC3
:10099800031DCA2C7035203E860087010030C03FF9
:1009A8000030C13FC23FC33F0130F0007008F40778
:1009B8000C307402031CC72C3D000E1796010E1252
:1009C8000E13F730F000700890052300B501A2015E
:1009D800A301A4013D009019E52C0130F000700836
:1009E8002300D7000130F0007008D800D401D501E9
:1009F800D301F401033074020318262D7435A73E81
:100A08008600013087000030C03FC13F7435AD3EDD
:100A18008600013087000030C03FC13F7408C03EE7
:100A280086000130870081017408C33E86000130CA
:100A3800870081010130F0007008F4070330740268
:100A4800031C022D28302300A7000030A800163010
:100A58003D00980000302000A3005030A20008306C
:100A6800A1000430F0007008A000A0172300EC01DA
:100A78000030BF000030BE000030BD000030BC00B8
:100A8800DA012100E20108002100640886008701DC
:100A9800413FF5007508F200F301730823002402B2
:100AA800031D582D7208230203185E2D2308F20037
:100AB8007208F5007508F200F3017208A3027308C2
:100AC800A43BF4017508740203187F2D7408583E7E
:100AD800860087010108F20020088600013087009F
:100AE800720881000130F2007208A0070130F2009C
:100AF8007208F407662D230824040319BA2D21006F
:100B08006008013EF2000030613DF3007208860083
:100B180073088700083081005830F2000030F30075
:100B2800600886006108870042317208C03F730878
:100B3800C13F640886008701011BAE2D600886004E
:100B480061088700483081006008860061088700D6
:100B58008117080060088600610887000830810056
:100B68006008860061088700811708002100600876
:100B7800013EF2000030613DF30072088600730800
:100B88008700083081005030F2000030F300600820
:100B980086006108870042317208C03F7308C13F70
:100BA80060088600610887000430810060088600BC
:100BB800610887008117230025082608A213560814
:100BC800031D08008D31832508003D000E12230007
:100BD800B51B312EA21FFF2D0230F500750821002C
:100BE800E30023005508031DFB2D8B31FE23230052
:100BF800D801D701080021006008013EF500003047
:100C0800613DF60075088600760887000830810087
:100C18005030F5000030F600600886006108870053
:100C280042317508C03F7608C13F600886006108F8
:100C380087000C30810060088600610887008117F2
:100C48002300270886002808870004308100270829
:100C5800860028088700811708002000D01F492E29
:100C68000130F50075082100E30023005408031D36
:100C7800402E8B31FE2385312300D801D701560839
:100C8800031D08008D31832508000230F500750822
:100C98002100E3006008013EF5000030613DF600E8
:100CA8007508860076088700083081005030F50006
:100CB8000030F60060088600610887004231750838
:100CC800C03F7608C13F600886006108870004308D
:100CD8008100600886006108870081172300D80119
:100CE800D7015608031D08008D318325080023000D
:100CF800B5170E302000E8009930E700E90102300E
:100D080069020318982E6708860068088700810121
:100D18000130E7070030E83D0130E6006608E907E2
:100D280002306902031C872E2030F0000030F100E9
:100D38000030F200F3003030F4000030F500973155
:100D4800D02786313D000E172000EA0103306A02E1
:100D58000318C22E6A08C03E860001308700810150
:100D68006A08C33E86000130870081010130E60031
:100D78006608EA0703306A02031CAE2EEA30F00068
:100D88000130F1000030F200F3000230F4000030CE
:100D9800F5009731D02786313D000E132830230007
:100DA800A7000030A80020302000E60066082100D7
:100DB800E4006408E000FF39031D0030E100200072
:100DC8005208E60066082300EC006C08031DF32EA9
:100DD80010302000E60066082100E200080000301C
:100DE8002000E1000130E000EC30E2000130E300D7
:100DF8000130E4000030E5008931CA2120302000AC
:100E0800E60066082100E2000800AB302200E80096
:100E18006808EF00AC30E8006808EE00AD30E80084
:100E28006808ED00AE30E8006808EC00AF30E80074
:100E38006808EB000C160530E8006808E1006B3024
:100E4800E9006908E20010308A313F22873110300A
:100E58008931072187312200E8006808EA00053057
:100E6800E8006808E1006B30E9006908E2000A3030
:100E78008A313F2287312200E101E10A01308831BD
:100E8800BD2087312200E101E10A02308831BD200E
:100E9800873103302200E8006808E1000330883118
:100EA800BD2087312F302200E8006808E1000430B7
:100EB8008831BD20873104308931072187312200EC
:100EC800E8006808EA001430E8006808E100053026
:100ED8008831BD20873106302200E8006808E1002B
:100EE80006308831BD20873170302200E80068085C
:100EF800E10007308831BD20873102302200E80048
:100F08006808E10011308831BD2087317B3022002C
:100F1800E8006808E10000308831BD20080023009F
:100F280027088600280887000030011B0130F500DB
:100F380004302706A70000302806A8000830210042
:100F48006206031DB62F200052087F393D00960027
:100F580016080319B12F1030B22F0430F3007308AC
:100F68002100E2006303031DF62F5830F300003020
:100F7800F4002300270886002808870042317308F8
:100F8800C03F7408C13F8D311B25873102302300D3
:100F98006206031DDB2F2708860028088700043017
:100FA800810027088600280887008117080075082F
:100FB800031DEA2F2708860028088700483081008B
:100FC8002708860028088700811708002708860058
:100FD800280887000830810027088600280887002D
:100FE800811708002300A21FFC2F25082608A2133A
:060FF8002100E3010800E6
:101006002200E2002100121123005D08031D1B28A7
:1010160022006208E10061082300CC00220060087B
:10102600E10061082300DE00DB01DB0ADD01DD0AE9
:1010360021001215080021006208031D08003D006A
:101046008E019201163091009F3097007B309200FE
:10105600210012150B178B173D008E1934288E159B
:101066002F2801302200E00060082100E20008007D
:101076003D001215EF302000E60066083D009005A1
:101086008E1401302000E60066082300D300DA0142
:1010960075302000E0000030E1000030E200003052
:1010A600E3000030E400E5008931CA210800FC00B5
:1010B600771D6228F0017C088A317D228831F71C71
:1010C6006928F001F00A7C088A317D227C08983E66
:1010D600F800F9010E30F93D7808FA007908FB00AE
:1010E6007A0886007B0887007708810008002300BD
:1010F600D30174302000E0000030E1000030E2004F
:101106000030E3000030E400E5008931CA2188316F
:101116003D008E101211101D9728FB302000E600AE
:1011260066083D0090058E282300DA01080022009B
:10113600EC00671DA328E0016C088A31BF228831C4
:101146002200E71CAB28E001E00A6C088A31BF22C6
:1011560022006C08983EE800E9010E30E93D680877
:10116600EA006908EB006A0886006B0887006708D2
:10117600810008002200E4000E130330E3009730DC
:10118600E200E20BC428E30BC42800322200640804
:1011960020389731882788312200610897318827BF
:1011A600883122000E170330E3009730E200E20B8D
:1011B600DA28E30BDA28003208003D00181C022961
:1011C600210064088600870180300106031D00297E
:1011D6002300270886002808870084300106031D9F
:1011E60000290C30F0002100640886008701700891
:1011F600810064088600870181173D001810DF30E2
:10120600F0007008900508002200E3000E1303307A
:10121600E2009730E100E10B0E29E20B0E290032C5
:1012260022006308E1006108E4006408973188271A
:101236008931FF309731882789312200E100610822
:10124600E5000E170330E2009730E100E10B292993
:10125600E20B292900322200650808002200E4007A
:101266000E1361309731882789312200E501640821
:1012760065020318522900309731882789312200E8
:10128600E20065086107E300630886000230870014
:10129600620881000130E2006208E5073A290E176C
:1012A6000C160330E3009730E200E20B5829E30BFB
:1012B60058290032080000302300E6000030E5001F
:1012C6004B30E4000030E300E701E8010830FD00A0
:1012D6007D08E900DC011A30FD007D08F7000130C9
:1012E60088315A2089311E30FD007D08F700023012
:1012F60088315A208931F0012030F1000130F200A6
:101306004030FD007D08F30002308E3174267108EE
:101316002300C9007008C800C601C701DD01080026
:10132600023021006306031D9B29853148250800EC
:101336002100E30123004E08031DC7292100600890
:10134600013EF6000030613DF7007608860077081A
:101356008700083081005030F6000030F700600842
:1013660086006108870042317608C03F7708C13F92
:1013760060088600610887000C30810060088600DE
:1013860061088700811708002300CE010800D929CB
:1013960001309731A427080002309731A4270800AE
:1013A60089315E2108008C315A240800200061082A
:1013B600003A0319E2297F3A0319FC29012A600839
:1013C600013A0319D329033A0319012A013A0319E9
:1013D600D629063A0319012A773A0319012A013A4E
:1013E6000319012A073A0319CF29013A0319CB2910
:1013F600012A6008FF3A0319012A012A0800003071
:101406002300E6000030E5004B30E4000030E30046
:10141600E701E80108302200ED006D082300E9002D
:10142600DC011A302200ED006D08E700013088313A
:101436009A208A311E302200ED006D08E700023046
:1014460088319A208A312200E0012030E100013003
:10145600E2004030ED006D08E30002308E31F726E1
:10146600220061082300C900220060082300C8008A
:10147600C601C701DD0108002200E5000E13033096
:10148600E4009730E300E30B462AE40B462A0032D9
:10149600220065082038973188278A312200E60124
:1014A600E7016708803AE30080306302031D5D2A86
:1014B600610866020318712A220066086207E300C3
:1014C60063088600013087000108973188278A3132
:1014D60001302200E6070030E73D542A22000E17AD
:1014E6000330E4009730E300E30B772AE40B772A16
:1014F60000320800F5002030F1007108F60070088F
:10150600F1000130F135890B852A7508F2000130AA
:10151600F235FF3E031D8B2A72357107F300013049
:10152600F335FF3E031D932A7335F4007408F6075E
:1015360076088600870181137008031DAC2A75356D
:10154600AD3E8600013087007608C03F0030C13FBF
:10155600B52A7535A73E8600013087007608C03F5C
:101566000030C13F76088600870101137608043EE5
:1015760086008701011708002200E5002030E100FF
:101586006108E6006008E1000130E135890BC82AF0
:101596006508E2000130E235FF3E031DCE2A6235C2
:1015A6006107E3000130E335FF3E031DD62A6335AC
:1015B600E4006408E6076608860087018113600870
:1015C600031DEF2A6535AD3E8600013087006608AB
:1015D600C03F0030C13FF82A6535A73E860001307E
:1015E60087006608C03F0030C13F66088600870155
:1015F60001136608043E86008701011708002300D0
:10160600E201D601D401D501CE012100E3017F30EC
:101616002000EE0023002708860028088700200007
:101626006E088105043023002706A700003028062F
:10163600A8007F302000EE00230027088600280837
:10164600870020006E088105043023002706A700C6
:1016560000302806A8007F302000EE002100600838
:1016660086006108870020006E0881052300B50109
:10167600B601B701A201A301A4018C31B9248B31B3
:1016860000302000E1000330E0000030E2000030CE
:10169600E3000030E400E5008931CA218B31853151
:1016A600E92508002D302100E60066082300D90050
:1016B60021006508FD39031D9E2B65363F39E6007E
:1016C6000130E635FF3E031D642B6635203EE700FC
:1016D6006708E4006408E000FF39031D0030E100FC
:1016E60004306006E00000306106E1006408860010
:1016F6008701010C890C0F390D3A031D9B2B5030C5
:101706008600870121006408023E84008501003FAF
:10171600E600013FE7006608840067088500083098
:10172600E80012001E00E80B942B8B310223080000
:10173600893193210800FD3021006505E60004305B
:101746006606031D08008731932708002000D8018C
:10175600D901E52B2300B51723005003031DF12BF8
:101766002000D814F12B2300B517F12B2300B51751
:101776002000D41BC92B54080F390907AD3E86003B
:1017860001308700403FF100413FD32B54080F3909
:101796000907A73E860001308700403FF100413F20
:1017A600F2007108860072088700811FF12B71080C
:1017B600860072088700011DF12B0130F0007008C9
:1017C600D800F12B50081F39003A0319AD2B013A06
:1017D6000319B62B033A0319B92BF12B2300B51FB6
:1017E60008005830B3000030B40035140230F00061
:1017F6007008B60008002300D401D501023021008C
:101806006306031D2B2C6008013EF3000030613D8A
:10181600F400730886007408870008308100583089
:10182600F3000030F400600886006108870042314A
:101836007308C03F7408C13F6008860061088700CE
:10184600483081006008860061088700811708001B
:101856002300370820005702031D352C23003608C5
:101866002000560203183E2C57082300B70020001C
:1018760056082300B6008D311B255830F300003082
:10188600F4002300270886002808870042317308E1
:10189600C03F7408C13F27088600280887004830E3
:1018A6008100270886002808870081170800200085
:1018B60050081F39013A031D0800500E890C0339E0
:1018C600013A031D080054080319A62C5403031DEE
:1018D6000800A62C2A302300B3000230B4000030E2
:1018E600B7000830B6003514B51708002A302300B3
:1018F600B3000230B400B5170800200057082300D3
:10190600A400200056082300A300E330F00070086E
:10191600A000A501A601A2170800E3302300B3002A
:101926000130B4000030B7000730B600C130F00017
:101936007008B500080020005208F0007008230067
:10194600DF00B517080020005108003A03196D2C76
:10195600013A0319792C213A0319802C013A03190B
:10196600902C033A03199E2CB82C08002000500E28
:10197600890C0339003A031D08000F2D2300B51703
:1019860008302000ED006D082100E20008008D31CE
:10199600F525080086317B260800EC302300B300CD
:1019A6000130B400351401302000ED006D0823002D
:1019B600B600B51708008B31A923080080313E20F8
:1019C600080020005408EA3E2300B3000130B400AA
:1019D600351401302000ED006D082300B600B51760
:1019E60008002300B51720005208ED005408EA3E0F
:1019F6008600013087006D08810008000030E10094
:101A06000230E0000030E2000030E3000030E40085
:101A1600E5008931CA2108002000510884000D30F4
:101A260004020318080090310435003E82000800C5
:101A36000830F0007008F20000302300370208304A
:101A4600031936020318372D3608F0007008F20025
:101A56006208031D302D0130342D6203031D372D1E
:101A66000230F0007008E2007208F000F101700820
:101A7600B6027108B73B2708013EF0000030283D4A
:101A8600F1007008860071088700720881005830DE
:101A9600F0007008E100351C662D7F2D33088400A8
:101AA600340885000008F000610886008701700888
:101AB60081000130B3070030B43D0130F0007008FA
:101AC600E1070130F202720803190800512D3308AC
:101AD6008400340885000008F0006108860087014C
:101AE600700881000130B3070030B43D0130F000CA
:101AF6007008E1070130F2027208031908006A2D26
:101B060023005708031D08000130F0007008D700B5
:101B16005808031D08000130F0007008D800023094
:101B260021006306031DAA2D230027088600280826
:101B36008700413181012708860028088700483040
:101B460081002708860028088700811708002100E1
:101B56006303031D08002300CE010830F0002100B6
:101B6600640A86008701700881005030F00000305A
:101B7600F1006408023E860087017008C03F7108C4
:101B8600C13F0430F00064088600870170088100B8
:101B960064088600870181170130F0007008230071
:101BA600CE0021006008013EF0000030613DF100EA
:101BB6007008860071088700083081005030F000F8
:101BC6000030F10060088600610887004231700825
:101BD600C03F7108C13F60088600610887008030F9
:101BE60081000800803020005006031D0800C03028
:101BF600F00070082300B500672ECE302300B30036
:101C06008330B4000030B7001230B6000800200060
:101C16005208031D3D2E5208F000F101F035F10D7A
:101C26002130700784008330713D8500003F23001A
:101C3600B300013FB4003408F1003308F00002306D
:101C46007007840071080318710A85000008F20005
:101C56007208B6003408F1003308F000033070074C
:101C6600840071080318710A85000008F2007208E2
:101C7600B70008002300B501080003302000520217
:101C86000318612E5208F000F101F035F10D1B30FA
:101C9600700784008330713D8500003F2300B30048
:101CA600013FB40033088400340885000008F000C2
:101CB600F1017008B6007108B70008002300B501ED
:101CC60008002300B501080020005308013A031953
:101CD600002E033A03190A2E013A0319402E642EE8
:101CE6000800F80070080319812E7835A73E860093
:101CF60001308700403FF900413F892E7835AD3EDF
:101D0600860001308700403FF900413FFA0079081C
:101D16007A04031D912EF001F1010800FF307105D0
:101D2600F4007F307205F500790886007A0887008E
:101D360042317408C03F7508C13F7908013EF4007E
:101D460000307A3DF5007408860075088700730830
:101D560081004030F400790886007A08870074080C
:101D66008105790886007A0887008115790886003A
:101D76007A088700811770080319DA2E7835A73E8E
:101D8600860001308700403FF400413FF5000430F3
:101D96007406F60000307506F7007835A73E860013
:101DA600013087007608C03F7708C13FF22E7835AC
:101DB600AD3E860001308700403FF400413FF5000C
:101DC60004307406F60000307506F7007835AD3E2F
:101DD6008600013087007608C03F7708C13F7A0841
:101DE600F1007908F00008002200E80060080319F5
:101DF600052F6835A73E860001308700403FE90081
:101E0600413F0D2F6835AD3E860001308700403FCB
:101E1600E900413FEA0069086A04031D152FE00145
:101E2600E1010800FF306105E4007F306205E5004E
:101E3600690886006A08870042316408C03F650861
:101E4600C13F6908013EE40000306A3DE5006408D0
:101E5600860065088700630881004030E400690851
:101E660086006A08870064088105690886006A0892
:101E760087008115690886006A088700811760084F
:101E860003195E2F6835A73E860001308700403F64
:101E9600E400413FE50004306406E60000306506D4
:101EA600E7006835A73E8600013087006608C03F18
:101EB6006708C13F762F6835AD3E86000130870042
:101EC600403FE400413FE50004306406E600003090
:101ED6006506E7006835AD3E860001308700660876
:101EE600C03F6708C13F6A08E1006908E0000800D2
:101EF60000309731B9278F3123008C018D018E0177
:101F06008331E4238F3188311E208F318A310222BA
:101F16008F3100302300E6000030E5000430E40095
:101F2600B030E30022000C160E13973191278F3143
:101F3600873109278F310B302300EF002630EE0062
:101F46006630ED00ED0BA52FEE0BA52FEF0BA52FA1
:101F560000320030893107218F312300ED006D08F2
:101F66002400B4000730893107218F312300ED00AA
:101F76006D082400B4000930893107218F31230010
:101F8600ED006D082400B40032302300ED006D082A
:101F96002200E1000230893131218F3122000C16F6
:101FA6000730893107218F312300ED006D082400A9
:101FB600B40023005D08031DFC2F24003408031D14
:101FC600FC2F02302300ED006D082200E0003230C5
:101FD600883103208F3106302300EF001330EE00E6
:101FE600B130ED00ED0BF52FEE0BF52FEF0BF52FC6
:101FF600003282314B228F31D32F8C31DE2C8C3143
:10200600E12C8D311A2D8C31E12C8D311A2D8C312C
:10201600C12C8C31CA2C8D31012D8C31D02C8C31B8
:0E202600CD2C8C31E42C8C31F42C8D311A2D04
:102F0400640080010131890B832F00342200E0002A
:102F1400600824009100141C8D2F1108080024005F
:102F24009516910121000D130D168E130E130C121C
:102F340022000E170C122400141715129413F030EB
:102F440095050800F000AD2FFC3021009900903069
:102F540027009B0008007008003A0319A62F013AC5
:102F64000319B82F033A0319B82FB82F0800220009
:102F7400E000C32FFC3021009900903027009B0013
:102F8400080022006008003A0319BC2F013A031913
:102F9400CF2F033A0319CF2FCF2F08007108F70062
:102FA4007008F6000130F4020030F53B740A03198E
:102FB400750A0319080076088600770887007208E6
:102FC40081000130F6070030F73DD42F0130230093
:102FD400BC070030BD3D0030BE3D0030BF3D53084E
:102FE400031D08000130F0007008DA075A08031DB9
:0C2FF4000800FF30F0007008DA00080050
:020000040001F9
:04000E00A4C1CFDCDE
:00000001FF
